:100000000EC04FC063C026C025C0B3C023C022C0ED
:1000100021C020C01FC01EC01DC01CC01BC0112499
:100020001FBECFE5D2E0DEBFCDBF11E0A0E6B0E05D
:10003000E0E9F6E002C005900D92A230B107D9F7D1
:1000400021E0A2E0B1E001C01D92A033B207E1F7C8
:100050008AD11CC346C00F931F93CF93DF938C01AB
:10006000862F660F990B6EE170E0BAD2BC0160502A
:1000700070404EE150E0C801D8D2E801025E1F4F47
:1000800089918C3030F464E670E012D184E690E01F
:10009000E9D0C017D107A1F7DF91CF911F910F9140
:1000A00008951F921FB61F9211248F93809104010F
:1000B000811107C010920301809125018F5F809309
:1000C00025018F911F901FBE1F9018958F938FB79A
:1000D0008F9385E88A95F1F700008F918FBF8F91FC
:1000E00018951F920F920FB60F9211242F933F93E2
:1000F0004F935F936F937F938F939F93AF93BF9330
:10010000EF93FF93E3DFFF91EF91BF91AF919F9149
:100110008F917F916F915F914F913F912F910F90B0
:100120000FBE0F901F9018958AB580688ABD8AB55A
:100130008F7B8ABD089582E089BF83E08ABD81E01C
:1001400083BF12BE19BC87BB10922D0110922A01E9
:1001500010922C0110922B0110922F0110922E015F
:100160001092260110922701109228011092290165
:1001700008950F920FB60F921F9211242F933F9361
:100180004F935F938F939F93AF93BF93EF93FF939F
:1001900080912D0120912B0130912C01820F932F02
:1001A000911D90932C0180932B01E0912B01F091F4
:1001B0002C01349633E0F695E7953A95E1F7EF7721
:1001C0000E2E000CFF0BEE57FF4F808190912A01FD
:1001D000992309F445C020912A0140912E015091A4
:1001E0002F01240F352F311D30932F0120932E0125
:1001F000E0912E01F0912F01349693E0F695E7956A
:100200009A95E1F7EF770E2E000CFF0BEE57FF4F9C
:100210009081890F96959695891B89BD80912601BD
:1002200090912701A0912801B09129010196A11D6B
:10023000B11D8093260190932701A0932801B093CC
:100240002901FF91EF91BF91AF919F918F915F91A4
:100250004F913F912F911F900F900FBE0F901895C7
:1002600090E0D7CF1092260110922701109228011A
:100270001092290125B7277E25BF6FE070E0B0D12D
:10028000B0E0A0E040912601509127016091280143
:100290007091290184179507A607B70708F40895F8
:1002A00025B7206225BF889525B72F7D25BFEACFCA
:1002B000CF93DF93EB018C30E0F4E82FEE0FFF0BD0
:1002C000E659FF4F808180932D01818180932A011F
:1002D0002BDFCE01C7DF8AB58F778ABD8AB58F7BCA
:1002E0008ABDC09810922D0110922A01DF91CF9102
:1002F0000895863F31F482E480932D0110922A0103
:10030000E7CF833F11F481E2F7CF853FB1F482E27A
:1003100080932D0110922A0107DFCE0163E070E087
:1003200070D1EB01CB019EDF8BE280932D01CE01DA
:1003300099DF83E380932D01CCCF843F61F683E383
:1003400080932D0110922A01EFDECE0163E070E070
:1003500058D1EB01CB0186DF8BE280932D01CE01DA
:1003600081DF82E2E7CF80E886BD16BC18BA9BE049
:1003700090BD88B983E085BF80E68BBF86E085BBF2
:100380007894D9DE70E060E08FEF92DF1092020186
:1003900081E08093040110920301109206011092F3
:1003A0000501C5E2D1E0E7E0F1E08FEF819391E054
:1003B000E532F907D9F7DD24D39401E01FEF83E09C
:1003C000F82E92E0E92E26B3922F927021FB882717
:1003D00080F9809304018D1509F4C9C0911132C0D0
:1003E000809103018160809303011092250182E3D3
:1003F00090E038DFD09004018091030180FFC1C0FC
:1004000095B7977E95BF95B7906295BF889595B73C
:100410009F7D95BF40912601509127016091280151
:1004200070912901403355476105710560F20093D1
:1004300002018E7F82608093030168EC70E083EF9D
:1004400037DFC1CF10920301809125019FEF980FF4
:100450009A3018F010932501CACF8A3011F4109207
:1004600025018091020181111CC064E670E0809139
:1004700025011EDF809106018E3108F0BBCFE82FE9
:10048000F0E0EE5FFE4F9091250195838F5F8093A2
:1004900006014EE150E062ED70E087E091E0D5D0DA
:1004A000A9CF8130F1F4E091250164E670E08AE0A3
:1004B000E13029F0E23029F464E670E08BE0F8DE08
:1004C00099CF67E0E33049F00E2E000CFF0BE05AA5
:1004D000FF4F6081683008F08DCF87E091E0BBDD91
:1004E00089CF8230D1F4E09125010E2E000CFF0B54
:1004F000E05AFF4F808187FD0DC080930501109267
:100500000601E7E0F1E01193CE17DF07E1F7F09283
:10051000020170CF109202016DCF833009F06ACFD3
:10052000809106018E31A8F01092020160E273E022
:1005300084EFBEDE80910501883008F05BCF90E04B
:100540006EE170E04DD0BC01605070404EE150E073
:10055000A4CFE82FF0E0EE5FFE4F90912501958348
:100560008F5F8093060164E670E083EFE2CF99230A
:1005700009F440CF1092020110920301109325015B
:1005800039CF81FF21C095B7977E95BF95B790620F
:1005900095BF889595B79F7D95BF40912601509155
:1005A0002701609128017091290140365A4E61055A
:1005B000710508F408CFE09202018D7F809303015A
:1005C00068EC70E085EF3CCF85B7877E806185BFA2
:1005D00085B7806285BF889585B78F7D85BFF3CE4F
:1005E0000024552704C0080E591F880F991F009733
:1005F00029F076956795B8F37105B9F7802D952F99
:100600000895AA1BBB1B51E107C0AA1FBB1FA61759
:10061000B70710F0A61BB70B881F991F5A95A9F7AB
:1006200080959095BC01CD010895DC01CB01FC01C2
:10063000E199FECF06C0FFBBEEBBE09A31960DB24A
:100640000D9241505040B8F70895DC01A40FB51F3A
:100650004150504040F0CB01840F951F2E9105D0A2
:1006600041505040D8F70895262FE199FECF9FBB07
:100670008EBBE09A01970DB2021639F01CBA2DBB61
:100680000FB6F894E29AE19A0FBE0895F894FFCF5E
:1006900000FFFFFF010203040506573D4F2E572EB2
:1006A000602E4F32573260324F38573860384F3DE6
:1006B000603D404346494C4F5255585B5E6063660F
:1006C000686A6D6F7173757678797B7C7D7E7E7FCD
:1006D0007F7F7F7F7F7F7E7E7D7C7B797876757361
:1006E000716F6D6A686663605E5B5855524F4C4926
:1006F0004643403C393633302D2A2724211F1C190C
:10070000171512100E0C0A09070604030201010056
:1007100000000000000001010203040607090A0CA2
:100720000E10121517191C1F2124272A2D303336BD
:02073000393C52
:00000001FF
