:100000000EC07EC092C026C025C0C6C023C022C07C
:1000100021C020C01FC01EC08AC01CC01BC011242C
:100020001FBECFE5D2E0DEBFCDBF11E0A0E6B0E05D
:10003000EAE7F6E002C005900D92A230B107D9F7C9
:1000400021E0A2E0B1E001C01D92A233B207E1F7C6
:10005000A0D111C36BC0A895F89414BE91B5986156
:1000600091BD813031F0823031F082E481BD7894ED
:10007000089583E4FBCF87E4F9CFA895F89414BEE4
:1000800081B5886181BD11BC7894089585B7877E5C
:10009000806185BFF89485B7806285BF85B7846825
:1000A00085BF8B7F85BF7894889585B78F7D85BF09
:1000B00008950F931F93CF93DF938C01062E000CAE
:1000C000770B85E0660F771F8A95E1F760507040E7
:1000D00040E250E0C8019ED2E801005E1F4F8991C6
:1000E0008C3030F464E670E0F6D084E690E0CDD059
:1000F000C017D107A1F7DF91CF911F910F910895FC
:100100001F921FB61F9211248F93809104018111B9
:1001100007C010920301809127018F5F8093270110
:100120008F911F901FBE1F901895189518958F934B
:100130008FB78F93EF93FF93E2E0F1E081818460CA
:100140008183FF91EF918F918FBF8F9118958AB521
:1001500080688ABD8AB58F7B8ABD089582E089BF99
:1001600083E08ABD81E083BF12BE19BCB89A1092A9
:100170002F0110922C0110922E0110922D0110923D
:100180003101109230011092280110922901109231
:100190002A0110922B0108950F920FB60F921F9211
:1001A00011242F933F934F935F938F939F93AF931C
:1001B000BF93EF93FF9380912F0120912D013091F8
:1001C0002E01820F932F911D90932E0180932D016C
:1001D000E0912D01F0912E01349633E0F695E795EC
:1001E0003A95E1F7EF770E2E000CFF0BEE57FF4F1D
:1001F000808190912C01992309F445C020912C0114
:100200004091300150913101240F352F311D309331
:10021000310120933001E0913001F09131013496A9
:1002200093E0F695E7959A95E1F7EF770E2E000C9F
:10023000FF0BEE57FF4F9081890F96959695891B7E
:1002400089BD8091280190912901A0912A01B09146
:100250002B010196A11DB11D8093280190932901C6
:10026000A0932A01B0932B01FF91EF91BF91AF9121
:100270009F918F915F914F913F912F911F900F9080
:100280000FBE0F90189590E0D7CF109228011092D2
:10029000290110922A0110922B0125B7277E25BF34
:1002A0006FE070E092D1B0E0A0E040912801509161
:1002B000290160912A0170912B0184179507A607E7
:1002C000B70708F4089525B7206225BF889525B79C
:1002D0002F7D25BFEACFCF93DF93EB011BBE8C3080
:1002E000F0F4E82FEE0FFF0BE659FF4F808180936B
:1002F0002F01818180932C012ADFCE01C6DF8AB5D0
:100300008F778ABD8AB58F7B8ABDC09810922F01E6
:1003100010922C0180E68BBFDF91CF910895863F2C
:1003200031F482E480932F0110922C01E5CF833FBA
:1003300011F481E2F7CF853FB1F482E280932F017F
:1003400010922C0104DFCE0163E070E04FD1EB018D
:10035000CB019BDF8BE280932F01CE0196DF83E3FD
:1003600080932F01CACF843F51F683E380932F01FE
:1003700010922C01ECDECE0163E070E037D1EB018E
:10038000CB0183DF8BE280932F01CE017EDF82E2FF
:10039000E7CF80E886BD16BC18BA9BE090BD88B94F
:1003A00083E085BF80E68BBF86E085BB789481E0E3
:1003B00052DE6CDE62DED2DE1092020181E08093BA
:1003C0000401109203011092060110920501E7E06A
:1003D000F1E08FEF819391E0E732F907D9F701E07F
:1003E000D1E0CFEF13E026B3922F927021FB882744
:1003F00080F980930401801709F4BEC0911122C0D6
:10040000809103018160809303011092270180E0B5
:1004100022DE3CDE009104018091030180FFB6C022
:1004200082E019DE33DE8091030182FFDCCFD093BE
:1004300002018A7F82608093030168EC70E083EFA1
:100440004ADFD1CF10920301809127019FEF980FCF
:100450009A3018F0C0932701DACF8A3011F4109245
:10046000270181E0F8DD12DE08DE809102018111B2
:100470001BC064E670E0809127012DDF80910601AA
:10048000803240F6E82FF0E0EE5FFE4F90912701BA
:1004900095838F5F8093060140E250E060EE70E04C
:1004A00087E091E0C7D0B6CF8130F1F4E091270129
:1004B00064E670E08AE0E13029F0E23029F464E695
:1004C00070E08BE008DFA6CF67E0E33049F00E2E46
:1004D000000CFF0BE05AFF4F6081683008F09ACFA4
:1004E00087E091E0E6DD96CF8230D9F4E0912701F4
:1004F0000E2E000CFF0BE05AFF4F808187FD0EC0CF
:100500008093050110920601E7E0F1E0C19381E0DC
:10051000E732F807D9F7109302017CCF109202015D
:1005200079CF833009F076CF809106018032B0F028
:100530001092020160E273E084EFCDDE609105016C
:10054000683008F067CF70E085E0660F771F8A9506
:10055000E1F76050704040E250E0A2CFE82FF0E0B9
:10056000EE5FFE4F9091270195838F5F8093060188
:1005700064E670E083EFE1CF992309F44BCF10924A
:10058000020110920301C093270144CF81FF11C0E3
:1005900082E061DD7BDD8091030182FF24CF92E068
:1005A00090930201897F8093030168EC70E085EFEE
:1005B00047CF85B7877E806185BF85B7806285BF5D
:1005C000889585B78F7D85BF0ECF0024552704C041
:1005D000080E591F880F991F009729F07695679587
:1005E000B8F37105B9F7802D952F0895AA1BBB1B91
:1005F00051E107C0AA1FBB1FA617B70710F0A61B23
:10060000B70B881F991F5A95A9F780959095BC0143
:10061000CD010895DC01CB01FC01E199FECF06C0BC
:10062000FFBBEEBBE09A31960DB20D9241505040A7
:10063000B8F70895DC01A40FB51F4150504040F0B9
:10064000CB01840F951F2E9105D041505040D8F713
:100650000895262FE199FECF9FBB8EBBE09A0197AC
:100660000DB2021639F01CBA2DBB0FB6F894E29AFF
:0A067000E19A0FBE0895F894FFCF41
:10067A0000FFFFFF010203040506573D4F2E572EC8
:10068A00602E4F32573260324F38573860384F3DFC
:10069A00603D404346494C4F5255585B5E60636625
:1006AA00686A6D6F7173757678797B7C7D7E7E7FE3
:1006BA007F7F7F7F7F7F7E7E7D7C7B797876757377
:1006CA00716F6D6A686663605E5B5855524F4C493C
:1006DA004643403C393633302D2A2724211F1C1922
:1006EA00171512100E0C0A0907060403020101006D
:1006FA0000000000000001010203040607090A0CB9
:10070A000E10121517191C1F2124272A2D303336D3
:02071A00393C68
:00000001FF
