:100000000EC079C08DC026C025C0C1C023C022C08B
:1000100021C020C01FC01EC085C01CC01BC0112431
:100020001FBECFE5D2E0DEBFCDBF11E0A0E6B0E05D
:10003000E8E6F6E002C005900D92A230B107D9F7CC
:1000400021E0A2E0B1E001C01D92A033B207E1F7C8
:1000500098D108C366C0A895F89414BE91B598616C
:1000600091BD813021F082E481BD7894089587E4C8
:10007000FBCFA895F89414BE81B5886181BD11BCF1
:100080007894089585B7877E806185BFF89485B799
:10009000806285BF85B7846885BF8B7F85BF789474
:1000A000889585B78F7D85BF08950F931F93CF9354
:1000B000DF938C01862F660F990B6EE170E07CD286
:1000C000BC01605070404EE150E0C8019AD2E80196
:1000D000025E1F4F89918C3030F464E670E0F6D0F8
:1000E00084E690E0CDD0C017D107A1F7DF91CF9182
:1000F0001F910F9108951F921FB61F9211248F9385
:1001000080910401811107C01092030180912501A3
:100110008F5F809325018F911F901FBE1F901895B0
:10012000189518958F938FB78F93EF93FF93E2E015
:10013000F1E0818184608183FF91EF918F918FBF86
:100140008F9118958AB580688ABD8AB58F7B8ABDE4
:10015000089582E089BF83E08ABD81E083BF12BE3B
:1001600019BCB89A10922D0110922A0110922C01FC
:1001700010922B0110922F0110922E011092260145
:1001800010922701109228011092290108950F92D0
:100190000FB60F921F9211242F933F934F935F93AB
:1001A0008F939F93AF93BF93EF93FF9380912D0114
:1001B00020912B0130912C01820F932F911D909350
:1001C0002C0180932B01E0912B01F0912C013496AE
:1001D00033E0F695E7953A95E1F7EF770E2E000CB0
:1001E000FF0BEE57FF4F808190912A01992309F46C
:1001F00045C020912A0140912E0150912F01240FDA
:10020000352F311D30932F0120932E01E0912E01C7
:10021000F0912F01349693E0F695E7959A95E1F7E2
:10022000EF770E2E000CFF0BEE57FF4F9081890FDA
:1002300096959695891B89BD8091260190912701FD
:10024000A0912801B09129010196A11DB11D8093B3
:10025000260190932701A0932801B0932901FF91D3
:10026000EF91BF91AF919F918F915F914F913F918E
:100270002F911F900F900FBE0F90189590E0D7CF41
:100280001092260110922701109228011092290144
:1002900025B7277E25BF6FE070E08ED1B0E0A0E0EB
:1002A0004091260150912701609128017091290108
:1002B00084179507A607B70708F4089525B72062A5
:1002C00025BF889525B72F7D25BFEACFCF93DF9334
:1002D000EB018C30E0F4E82FEE0FFF0BE659FF4FF7
:1002E000808180932D01818180932A012BDFCE01B3
:1002F000C7DF8AB58F778ABD8AB58F7B8ABDC098E4
:1003000010922D0110922A01DF91CF910895863F1E
:1003100031F482E480932D0110922A01E7CF833FCC
:1003200011F481E2F7CF853FB1F482E280932D0191
:1003300010922A0107DFCE0163E070E04ED1EB019D
:10034000CB019EDF8BE280932D01CE0199DF83E309
:1003500080932D01CCCF843F61F683E380932D0100
:1003600010922A01EFDECE0163E070E036D1EB019E
:10037000CB0186DF8BE280932D01CE0181DF82E20B
:10038000E7CF90E896BD16BC88B3866088BB8BE04B
:1003900080BD98B983E085BF80E68BBF86E085BBD2
:1003A0007894D7DE80E057DE6DDE63DE10920201C6
:1003B00081E08093040110920301109206011092D3
:1003C0000501E7E0F1E08FEF819391E0E532F90775
:1003D000D9F7FF24F394D1E0CFEF13E002E026B386
:1003E000922F927021FB882780F9809304018F154A
:1003F00009F4BAC0911122C08091030181608093F9
:1004000003011092250180E026DE3CDEF09004011D
:100410008091030180FFB2C081E01DDE33DE809158
:10042000030182FFDCCFD09302018A7F8260809338
:10043000030168EC70E083EF49DFD1CF1092030134
:10044000809125019FEF980F9A3018F0C0932501F5
:10045000DACF8A3011F4109225010BDE809102016F
:1004600081111BC064E670E0809125012FDF80912F
:1004700006018E3158F6E82FF0E0EE5FFE4F9091C6
:10048000250195838F5F809306014EE150E062ED78
:1004900070E087E091E0C5D0B9CF8130F1F4E09110
:1004A000250164E670E08AE0E13029F0E23029F4C9
:1004B00064E670E08BE00ADFA9CF67E0E33049F043
:1004C0000E2E000CFF0BE05AFF4F6081683008F0E1
:1004D0009DCF87E091E0E9DD99CF8230D9F4E091BA
:1004E00025010E2E000CFF0BE05AFF4F808187FD87
:1004F0000EC08093050110920601E7E0F1E0C19380
:1005000081E0E532F807D9F7109302017FCF10920E
:1005100002017CCF833009F079CF809106018E31C2
:10052000A8F01092020160E273E084EFCFDE8091C8
:100530000501883008F06ACF90E06EE170E03CD0B1
:10054000BC01605070404EE150E0A3CFE82FF0E0D6
:10055000EE5FFE4F9091250195838F5F809306019A
:1005600064E670E083EFE2CF992309F44FCF109255
:10057000020110920301C093250148CF81FF10C0F2
:1005800081E069DD7FDD8091030182FF28CF009348
:100590000201897F8093030168EC70E085EF4CCF06
:1005A00085B7877E806185BF85B7806285BF889566
:1005B00085B78F7D85BF13CF0024552704C0080E53
:1005C000591F880F991F009729F076956795B8F302
:1005D0007105B9F7802D952F0895AA1BBB1B51E11A
:1005E00007C0AA1FBB1FA617B70710F0A61BB70BA3
:1005F000881F991F5A95A9F780959095BC01CD0148
:100600000895DC01CB01FC01E199FECF06C0FFBBE0
:10061000EEBBE09A31960DB20D9241505040B8F7C2
:100620000895DC01A40FB51F4150504040F0CB01AC
:10063000840F951F2E9105D041505040D8F7089552
:10064000262FE199FECF9FBB8EBBE09A01970DB29A
:10065000021639F01CBA2DBB0FB6F894E29AE19A53
:080660000FBE0895F894FFCFCE
:1006680000FFFFFF010203040506573D4F2E572EDA
:10067800602E4F32573260324F38573860384F3D0E
:10068800603D404346494C4F5255585B5E60636637
:10069800686A6D6F7173757678797B7C7D7E7E7FF5
:1006A8007F7F7F7F7F7F7E7E7D7C7B797876757389
:1006B800716F6D6A686663605E5B5855524F4C494E
:1006C8004643403C393633302D2A2724211F1C1934
:1006D800171512100E0C0A0907060403020101007F
:1006E80000000000000001010203040607090A0CCB
:1006F8000E10121517191C1F2124272A2D303336E6
:02070800393C7A
:00000001FF
