:100000000EC05DC073C026C025C0EEC223C022C092
:1000100021C020C01FC01EC07DC01CC01BC0112439
:100020001FBECFE5D2E0DEBFCDBF11E0A0E6B0E05D
:10003000E2E6F9E002C005900D92A430B107D9F7CD
:1000400011E0A4E0B1E001C01D92A733B107E1F7D0
:10005000B5D185C455C0982FA895F89414BE81B524
:10006000886181BD923081F0933028F4992341F06A
:10007000913081F407C0933049F0943059F408C0AE
:1000800082E407C083E405C085E481BD86E401C045
:1000900087E481BD7894089585B7877E806185BFA8
:1000A000F89485B7806285BF85B7846885BF8B7FEC
:1000B00085BF7894889585B78F7D85BF08951F92F9
:1000C0000F920FB60F9211248F938091080188230D
:1000D00039F41092070180912B018F5F80932B01DF
:1000E0008F910F900FBE0F901F9018951F920F9237
:1000F0000FB60F9211240F900FBE0F901F901895FE
:100100001F920F920FB60F9211240F900FBE0F90F7
:100110001F9018951F920F920FB60F9211248F9374
:10012000809107018460809307018F910F900FBE2B
:100130000F901F9018950F931F93CF93DF938C010F
:10014000683050F5772767FD709585E0660F771F5B
:100150008A95E1F760507040C80140E250E0B8D3A2
:10016000C0E0D0E0F801EC0FFD1FE081EC3080F43E
:100170008091610090E062E370E084D3BC018E2F37
:10018000CED28091610090E062E370E07BD3A0D298
:100190002196C032D10531F7DF91CF911F910F9198
:1001A00008950F931F93CF93DF93EC0188818823E9
:1001B000C9F48091610090E062E370E063D3BC0118
:1001C0008DA1ADD29C81903208F0F3C0FE01E90F01
:1001D000F11D8DA185839F5F9C83CE01059660EE06
:1001E00070E0E4C08130F9F4EDA1E13011F48AE06F
:1001F00003C0E23021F48BE08093040111C0E330AE
:1002000021F4CE01059667E00AC0FF27E7FDF095CF
:10021000EE59FF4F608167FD03C0CE0105968BDF6D
:1002200080912C011BC0823009F095C02DA1E22FD6
:10023000FF27E7FDF095EE59FF4FE081E7FD10C085
:10024000EB831C82FE0180E09FEF95838F5F3196E8
:100250008032D9F7888180932C0183E08883A9C0FC
:10026000213009F051C09091050190FF24C0809188
:1002700060008F5F80936000853018F401E010E02B
:1002800013C0209360009E7F9093050181EF60E290
:1002900073E045D22FC083EF68EC70E040D288EC69
:1002A00090E016D20F5F1F4F8091600090E08017A2
:1002B00091078CF71FC091609093050101E010E059
:1002C00013C00130110539F482EF60E273E027D2E8
:1002D00088EC90E0FDD183EF68EC70E020D288ECF0
:1002E00090E0F6D10F5F1F4F8091600090E0801783
:1002F00091073CF78FEF91E06091050122D38EEFDB
:1003000091E06091600021C0223009F58091610088
:100310008F5F80936100853018F081E080936100E9
:1003200001E010E009C086EF68EC70E0F8D188ECDD
:1003300090E0CED10F5F1F4F60916100862F90E05B
:100340008017910784F78DEF91E0FBD2888180932D
:100350002C0118822EC0833061F59C81903238F0D8
:1003600080932C01188284EF60E273E00FC0FE01DD
:10037000E90FF11D8DA185839F5F9C8380916100B2
:1003800090E062E370E07ED2BC0183EFC8D16B8164
:10039000683078F4772767FD709595E0660F771FD2
:1003A0009A95E1F760507040CE01059640E250E02A
:1003B000A7D2DF91CF911F910F910895FF920F93D4
:1003C0001F9390E896BD16BC88B3866088BB8BE00F
:1003D00080BD98B983E085BF80E68BBF86E085BB92
:1003E000789481E038DE58DEA895F89414BE81B583
:1003F000886181BD11BC7894D9D01092060181E04A
:10040000809308011092070110920A0110920901CD
:10041000EBE0F1E08FEF819391E0EB32F907D9F750
:100420008FEF91E065D280930501823030F0109219
:1004300005018FEF91E060E084D28EEF91E058D219
:10044000809360008150843038F081E080936000B8
:100450008EEF91E061E075D28DEF91E049D280930B
:1004600061008150843038F082E0809361008DEF2C
:1004700091E062E066D28091050180FF0BC080911F
:10048000600090E068EE73E0FDD122D18BE091E056
:1004900060E051DE11E00FEF32E0F32E86B390E022
:1004A00096958795817080930801181759F18823D4
:1004B00041F48091070181608093070110922B0124
:1004C0000AC01092070190912B01892F81508A3028
:1004D00030F000932B0180E0BEDDDEDD1FC09A30DE
:1004E00011F410922B0181E0B6DDD6DDA895F894C9
:1004F00014BE81B5886181BD11BC789486E091E01D
:1005000050DE0CC0112351F08091060180932C0124
:10051000109206011092070100932B01109108011F
:1005200080910401882339F080932B0110920401FB
:1005300086E091E036DE8091070180FF14C084E000
:100540008ADDAADD9091070192FFA8CF8091060174
:1005500080932C0181E0809306019A7F92609093B2
:10056000070183EF13C081FF15C084E074DD94DDC3
:100570009091070192FF92CF8091060180932C0108
:10058000F0920601997F9093070185EF68EC70E087
:10059000C6D084CF85B7877E806185BF85B78062EE
:1005A00085BF889585B78F7D85BF78CF82E089BF6D
:1005B00083E08ABD81E083BF12BE19BCB89A109255
:1005C00034011092310110923301109232011092D5
:1005D00036011092350110922D0110922E011092C9
:1005E0002F011092300108951F920F920FB60F92B3
:1005F00011242F933F938F939F93AF93BF93EF93C8
:10060000FF93809132019091330120913401820F48
:10061000911D9093330180933201E0913201F0916A
:100620003301349693E0F695E7959A95E1F7FF2725
:10063000E7FDF095EF77F070E459FF4F308180913E
:100640003101882311F4E0E01EC0809135019091C2
:10065000360120913101820F911D909336018093D4
:100660003501E0913501F0913601349683E0F6953D
:10067000E7958A95E1F7FF27E7FDF095EF77F070B2
:10068000E459FF4FE0813E0FE695E6953E1B39BDEC
:1006900080912D0190912E01A0912F01B0913001F8
:1006A0000196A11DB11D80932D0190932E01A09361
:1006B0002F01B0933001FF91EF91BF91AF919F91C6
:1006C0008F913F912F910F900FBE0F901F90189513
:1006D00010922D0110922E0110922F0110923001D4
:1006E00025B7277E25BF6FE070E0CCD09C0140E0AD
:1006F00050E007C085B7806285BF889585B78F7D3C
:1007000085BF80912D0190912E01A0912F01B09174
:100710003001281739074A075B0760F708950F93E0
:100720001F931BBE8C3078F4E82FFF27E7FDF09570
:10073000EE0FFF1FE451FF4F8081809334018181D0
:100740008093310107C0863F69F482E480933401CD
:10075000109231018AB580688ABD8AB58F7B8ABDC7
:10076000CB017FC0833F11F481E2F0CF853FE1F4FC
:1007700082E280933401109231018AB580688ABD8B
:100780008AB58F7B8ABDCB0163E070E08DD0162FD8
:10079000072F862F972F9CDF8BE280933401812FC8
:1007A000902F96DF83E359C0823FE1F485E5809383
:1007B0003401109231018AB580688ABD8AB58F7B79
:1007C0008ABDCB0166E070E06FD0162F072F862F11
:1007D000972F7EDF82E680933401812F902F78DF80
:1007E0008FE63BC0843FE1F483E3809334011092B1
:1007F00031018AB580688ABD8AB58F7B8ABDCB01FD
:1008000063E070E051D0162F072F862F972F60DFFF
:100810008BE280933401812F902F5ADF82E21DC03A
:10082000813F01F58FE680933401109231018AB542
:1008300080688ABD8AB58F7B8ABDCB0166E070E097
:1008400033D0162F072F862F972F42DF82E6809313
:100850003401812F902F3CDF85E580933401812F77
:10086000902F36DF8AB58F778ABD8AB58F7B8ABD98
:10087000C098109234011092310180E68BBF1F9115
:100880000F9108955527002480FF02C0060E571FC0
:10089000660F771F6115710521F096958795009772
:1008A00099F7952F802D0895AA1BBB1B51E107C016
:1008B000AA1FBB1FA617B70710F0A61BB70B881FF0
:1008C000991F5A95A9F780959095BC01CD0108957F
:1008D000DC01CB01FC01E199FECF06C0FFBBEEBB02
:1008E000E09A31960DB20D9241505040B8F70895FC
:1008F000E199FECF9FBB8EBBE09A99278DB30895F7
:10090000DC01A40FB51F4150504040F0CB01840FD3
:10091000951F2E9105D041505040D8F70895262FAD
:10092000E199FECF9FBB8EBBE09A01970DB20216F4
:1009300039F01CBA2DBB0FB6F894E29AE19A0FBEBB
:100940000895262FE199FECF1CBA9FBB8EBB2DBB0D
:100950000FB6F894E29AE19A0FBE01960895F894C2
:02096000FFCFC7
:10096200010200FFFFFF010203040506404346495E
:100972004C4F5255585B5E606366686A6D6F717367
:10098200757678797B7C7D7E7E7F7F7F7F7F7F7FA0
:100992007E7E7D7C7B7978767573716F6D6A686611
:1009A20063605E5B5855524F4C494643403C393672
:1009B20033302D2A2724211F1C19171512100E0C53
:1009C2000A090706040302010100000000000000FA
:1009D20001010203040607090A0C0E101215171969
:1009E2001C1F2124272A2D303336393C573D4F2EE8
:1009F200572E602E4F32573260324F385738603898
:040A02004F3D603DC7
:00000001FF
