:100000000EC05DC073C026C025C053C323C022C02C
:1000100021C020C01FC01EC07DC01CC01BC0112439
:100020001FBECFE5D2E0DEBFCDBF11E0A0E6B0E05D
:10003000E2E4FAE002C005900D92A032B107D9F7D0
:1000400011E0A0E2B1E001C01D92A635B107E1F7D1
:100050000CD2F5C455C0982FA895F89414BE81B55C
:10006000886181BD923081F0933028F4992341F06A
:10007000913081F407C0933049F0943059F408C0AE
:1000800082E407C083E405C085E481BD86E401C045
:1000900087E481BD7894089585B7877E806185BFA8
:1000A000F89485B7806285BF85B7846885BF8B7FEC
:1000B00085BF7894889585B78F7D85BF08951F92F9
:1000C0000F920FB60F9211248F93809125018823F0
:1000D00039F410922401809149018F5F8093490186
:1000E0008F910F900FBE0F901F9018951F920F9237
:1000F0000FB60F9211240F900FBE0F901F901895FE
:100100001F920F920FB60F9211240F900FBE0F90F7
:100110001F9018951F920F920FB60F9211248F9374
:10012000809124018460809324018F910F900FBEF1
:100130000F901F9018951F93CF93DF93EC016830B9
:1001400008F049C0862F992787FD909561E270E0FD
:1001500009D4BC0160507040CE0141E250E028D487
:100160008091210180934B0188818093210111E0CE
:1001700029812D3040F580912101909161008130DD
:1001800049F4892F90E062E370E0ECD3BC01822F48
:10019000835F07C0892F90E062E370E0E3D3BC0186
:1001A000822F22D380912101813031F489818C30DA
:1001B00019F48CED95E006C08091610090E062E357
:1001C00070E0D0D3EAD21F5F2196113289F6809178
:1001D0004B0180932101DF91CF911F9108950F93DF
:1001E0001F93CF93DF93EC018881882369F5809179
:1001F000210190916100813051F42EA1892F90E06E
:1002000062E370E0AFD3BC01822F835F07C0892F08
:1002100090E062E370E0A6D3BC018EA1E5D29C81A0
:10022000913208F01DC180912101882309F018C185
:10023000FE01E90FF11D8EA185839F5F9C83CE0196
:10024000059667EE70E009C1813029F5EEA1E13035
:1002500011F48AE00BC0E23011F48BE007C0E33008
:1002600061F480912101813021F48CE080932001A0
:100270000FC0CE01059667E00AC0FF27E7FDF095A5
:10028000EE59FF4F608167FD03C0CE01059653DF35
:1002900080914A011FC0823009F0B5C02EA1E22F23
:1002A000FF27E7FDF095EE59FF4FE081E7FD14C011
:1002B000EB8381E08C83809121018D83FE0181E0BD
:1002C0009FEF96838F5F31968132D9F78881809333
:1002D0004A0183E08883C4C0213009F051C0909165
:1002E000220190FF24C0809160008F5F80936000A6
:1002F000853018F401E010E013C0209360009E7F69
:100300009093220181EF60E273E06ED22FC083EF01
:1003100068EC70E069D288EC90E03FD20F5F1F4F2D
:100320008091600090E0801791078CF71FC091606A
:100330009093220101E010E013C00130110539F45F
:1003400082EF60E273E050D288EC90E026D283EF37
:1003500068EC70E049D288EC90E01FD20F5F1F4F2D
:100360008091600090E0801791073CF78FEF91E05B
:100370006091220156D38EEF91E0609160003DC004
:10038000223001F5809161008F5F8093610085309C
:1003900018F081E08093610001E010E009C086EF71
:1003A00068EC70E021D288EC90E0F7D10F5F1F4F2E
:1003B00060916100862F90E08017910784F78DEFA0
:1003C00091E01BC02330D9F48091220181FF07C046
:1003D0008D7F809322011092210181EF07C08260FE
:1003E0008093220181E08093210182EF60E273E03B
:1003F000FBD18FEF91E06091220113D3888180932C
:100400004A0118822DC0833059F59C81913238F011
:1004100080934A01188284EF60E273E00FC0FE010E
:10042000E90FF11D8EA185839F5F9C838091610000
:1004300090E062E370E096D2BC0183EFD5D18B816E
:10044000883070F4992787FD909561E270E08AD238
:10045000BC0160507040CE01059641E250E0C0D230
:10046000DF91CF911F910F910895FF920F931F93EA
:1004700090E896BD16BC88B3866088BB8BE080BDD3
:1004800098B983E085BF80E68BBF86E085BB789412
:1004900081E0E1DD01DEA895F89414BE81B58861A4
:1004A00081BD11BC7894E7D01092230181E0809344
:1004B00025011092240180932701109226011092A9
:1004C0002801E9E2F1E08FEF819391E0E934F90747
:1004D000D9F78FEF91E07CD280932201843030F005
:1004E000109222018FEF91E060E09BD28EEF91E0BD
:1004F0006FD2809360008150843038F081E0809327
:1005000060008EEF91E061E08CD28DEF91E060D2DF
:10051000809361008150843038F082E080936100E4
:100520008DEF91E062E07DD2109221018091220155
:1005300080FF0BC08091600090E068EE73E012D203
:100540002CD188E291E060E0F6DD8091220181FF0C
:1005500004C081E08093210102C01092210111E0CA
:100560000FEF32E0F32E86B390E096958795817079
:1005700080932501181759F1882341F480912401B3
:10058000816080932401109249010AC010922401D5
:1005900090914901892F81508A3030F000934901B0
:1005A00080E059DD79DD1FC09A3011F410924901C5
:1005B00081E051DD71DDA895F89414BE81B58861A4
:1005C00081BD11BC789483E291E009DE0CC0112357
:1005D00051F08091230180934A01109223011092DF
:1005E0002401009349011091250180912001882365
:1005F00039F0809349011092200183E291E0EFDD10
:100600008091240180FF14C084E025DD45DD9091B8
:10061000240192FFA8CF8091230180934A0181E0B9
:10062000809323019A7F92609093240183EF13C0FB
:1006300081FF15C084E00FDD2FDD9091240192FF32
:1006400092CF8091230180934A01F0922301997FF8
:100650009093240185EF68EC70E0C6D084CF85B715
:10066000877E806185BF85B7806285BF889585B7A5
:100670008F7D85BF78CF82E089BF83E08ABD81E02E
:1006800083BF12BE19BCB89A109253011092500148
:100690001092520110925101109255011092540182
:1006A00010924C0110924D0110924E0110924F0188
:1006B00008951F920F920FB60F9211242F933F931C
:1006C0008F939F93AF93BF93EF93FF9380915101CB
:1006D0009091520120915301820F911D90935201EC
:1006E00080935101E0915101F0915201349693E0D1
:1006F000F695E7959A95E1F7FF27E7FDF095EF77F7
:10070000F070E459FF4F308180915001882311F43B
:10071000E0E01EC08091540190915501209150015C
:10072000820F911D9093550180935401E0915401E3
:10073000F0915501349683E0F695E7958A95E1F7B7
:10074000FF27E7FDF095EF77F070E459FF4FE08168
:100750003E0FE695E6953E1B39BD80914C01909188
:100760004D01A0914E01B0914F010196A11DB11D07
:1007700080934C0190934D01A0934E01B0934F0193
:10078000FF91EF91BF91AF919F918F913F912F91E9
:100790000F900FBE0F901F90189510924C01109261
:1007A0004D0110924E0110924F0125B7277E25BFB3
:1007B0006FE070E0D7D09C0140E050E007C085B703
:1007C000806285BF889585B78F7D85BF80914C01FC
:1007D00090914D01A0914E01B0914F01281739071A
:1007E0004A075B0760F708950F931F93282F1BBEDE
:1007F0008A31C8F4E82FFF27E7FDF095EE0FFF1FC1
:10080000E451FF4F80818093530181818093500197
:100810008AB580688ABD8AB58F7B8ABD2931A1F4EB
:100820008CED95E08EC0863F11F482E403C0833FD7
:1008300069F481E280935301109250018AB5806877
:100840008ABD8AB58F7B8ABDCB017BC0853FE1F431
:1008500082E280935301109250018AB580688ABD6C
:100860008AB58F7B8ABDCB0163E070E08DD0162FF7
:10087000072F862F972F91DF8BE280935301812FD3
:10088000902F8BDF83E359C0823FE1F485E58093AD
:100890005301109250018AB580688ABD8AB58F7B5A
:1008A0008ABDCB0166E070E06FD0162F072F862F30
:1008B000972F73DF82E680935301812F902F6DDF96
:1008C0008FE63BC0843FE1F483E3809353011092B1
:1008D00050018AB580688ABD8AB58F7B8ABDCB01FD
:1008E00063E070E051D0162F072F862F972F55DF2A
:1008F0008BE280935301812F902F4FDF82E21DC046
:10090000813F01F58FE680935301109250018AB523
:1009100080688ABD8AB58F7B8ABDCB0166E070E0B6
:1009200033D0162F072F862F972F37DF82E680933D
:100930005301812F902F31DF85E580935301812F63
:10094000902F2BDF8AB58F778ABD8AB58F7B8ABDC2
:10095000C098109253011092500180E68BBF1F91F6
:100960000F9108955527002480FF02C0060E571FDF
:10097000660F771F6115710521F096958795009791
:1009800099F7952F802D0895AA1BBB1B51E107C035
:10099000AA1FBB1FA617B70710F0A61BB70B881F0F
:1009A000991F5A95A9F780959095BC01CD0108959E
:1009B000DC01CB01FC01E199FECF06C0FFBBEEBB21
:1009C000E09A31960DB20D9241505040B8F708951B
:1009D000E199FECF9FBB8EBBE09A99278DB3089516
:1009E000DC01A40FB51F4150504040F0CB01840FF3
:1009F000951F2E9105D041505040D8F70895262FCD
:100A0000E199FECF9FBB8EBBE09A01970DB2021613
:100A100039F01CBA2DBB0FB6F894E29AE19A0FBEDA
:100A20000895262FE199FECF1CBA9FBB8EBB2DBB2C
:100A30000FB6F894E29AE19A0FBE01960895F894E1
:020A4000FFCFE6
:100A4200010200FFFFFF010203040506404346497D
:100A52004C4F5255585B5E606366686A6D6F717386
:100A6200757678797B7C7D7E7E7F7F7F7F7F7F7FBF
:100A72007E7E7D7C7B7978767573716F6D6A686630
:100A820063605E5B5855524F4C494643403C393691
:100A920033302D2A2724211F1C19171512100E0C72
:100AA2000A09070604030201010000000000000019
:100AB20001010203040607090A0C0E101215171988
:100AC2001C1F2124272A2D303336393C573D4F2E07
:100AD200572E602E4F32573260324F3857386038B7
:100AE2004F3D603D000055622E3B2E483B482E553F
:100AF2003B5548552E623B624862486F626FAA00BE
:00000001FF
